:100000000C9461000C947E000C947E000C947E0095
:100010000C947E000C947E000C947E000C947E0068
:100020000C947E000C947E000C947E000C947E0058
:100030000C947E000C947E000C947E000C947E0048
:100040000C94E9010C947E000C947E000C947E00CC
:100050000C947E000C947E000C947E000C947E0028
:100060000C947E000C947E00000000002400270009
:100070002A0000000000250028002B0000000000DE
:1000800023002600290004040404040404040202DA
:100090000202020203030303030301020408102007
:1000A0004080010204081020010204081020000012
:1000B0000008000201000003040700000000000027
:1000C000000011241FBECFEFD8E0DEBFCDBF11E08E
:1000D000A0E0B1E0E6EBF3E102C005900D92A231A1
:1000E000B107D9F721E0A2E1B1E001C01D92A4322D
:1000F000B207E1F70E9433020C94D9090C94000076
:10010000833081F028F4813099F08230A9F008958D
:100110008730A9F08830C9F08430B1F48091800034
:100120008F7D03C0809180008F7780938000089539
:1001300084B58F7784BD089584B58F7DFBCF809182
:10014000B0008F778093B00008958091B0008F7DCC
:10015000F9CF1F93CF93DF93282F30E0F901E255B9
:10016000FF4F8491F901E656FF4FD491F901EA5708
:10017000FF4FC491CC23A9F0162F81110E9480005B
:10018000EC2FF0E0EE0FFF1FEE58FF4FA591B4915A
:100190008FB7F894EC91111108C0D095DE23DC9351
:1001A0008FBFDF91CF911F910895DE2BF8CFCF93B2
:1001B000DF9390E0FC01E656FF4F24918A579F4F52
:1001C000FC0184918823D1F090E0880F991FFC01F5
:1001D000E859FF4FA591B491FC01EE58FF4FC5912E
:1001E000D491623071F49FB7F8943C91822F80953E
:1001F00083238C93E8812E2B28839FBFDF91CF919F
:1002000008958FB7F894EC912E2B2C938FBFF6CFD7
:100210003FB7F8948091150190911601A0911701B4
:10022000B091180126B5A89B05C02F3F19F0019683
:10023000A11DB11D3FBFBA2FA92F982F8827BC0140
:10024000CD01620F711D811D911D42E0660F771F68
:10025000881F991F4A95D1F708958F929F92AF9268
:10026000BF92CF92DF92EF92FF926B017C010E94CE
:1002700008014B015C01C114D104E104F104B9F09F
:100280000E940801681979098A099B09683E734030
:100290008105910580F321E0C21AD108E108F10837
:1002A00088EE880E83E0981EA11CB11CE4CFFF905D
:1002B000EF90DF90CF90BF90AF909F908F90089578
:1002C000CF93DF93C8E0D0E061E081E00E94A90015
:1002D00060E082E00E94A90060E570E080E090E0CC
:1002E0000E942D0160E081E00E94A90061E082E0AF
:1002F0000E94A90060E570E080E090E00E942D017E
:10030000219711F7DF91CF910895CF92DF92EF926D
:10031000FF920F931F93CF93DF938C0183E0000F25
:10032000111F8A95E1F7D0E0C0E06B01770FEE086E
:10033000FF0861E08FE00E94A90060E08EE00E946B
:10034000A900C701B6010E942D0160E08FE00E9464
:10035000A90061E08EE00E94A900C701B6010E94D9
:100360002D0121960C171D0721F7DF91CF911F91C9
:100370000F91FF90EF90DF90CF9008951F93CF9350
:10038000DF93182F89E0869FE001879FD00D11240D
:10039000CC50DE4FD0931301C093120161E0812F46
:1003A0000E94A900C230D10538F0CC0FDD1FCC0F60
:1003B000DD1F25972197F1F760E0812F0E94A900AA
:1003C00062E370E080E090E0DF91CF911F910C94A8
:1003D0002D011F920F920FB60F9211242F933F936E
:1003E0008F939F93AF93BF938091190190911A01BE
:1003F000A0911B01B0911C013091140123E0230F47
:100400002D3758F50196A11DB11D2093140180933D
:10041000190190931A01A0931B01B0931C018091C4
:10042000150190911601A0911701B0911801019644
:10043000A11DB11D8093150190931601A093170182
:10044000B0931801BF91AF919F918F913F912F91E0
:100450000F900FBE0F901F90189526E8230F02965D
:10046000A11DB11DD2CFCF93DF9300D0CDB7DEB7A2
:10047000789484B5826084BD84B5816084BD85B57F
:10048000826085BD85B5816085BD80916E0081608B
:1004900080936E0010928100809181008260809331
:1004A0008100809181008160809381008091800033
:1004B0008160809380008091B10084608093B1005E
:1004C0008091B00081608093B00080917A00846058
:1004D00080937A0080917A00826080937A00809184
:1004E0007A00816080937A0080917A00806880939E
:1004F0007A001092C10061E08DE00E94D7005CE0BC
:10050000E52E51E0F52E8CEF9FEF9A838983F7015A
:1005100011917F0161E0812F0E94D70089819A812A
:10052000029740F061E0812F0E94A90060E0812FD6
:100530000E94A900E981FA813196FA83E983329712
:1005400031F7198261E089810E94D700F981FF5F4C
:10055000F983F530B9F762E088E00E94D70061E0E6
:1005600085E00E94D70061E085E00E94A90062E07A
:1005700087E00E94D70061E086E00E94D70061E03A
:1005800086E00E94A90061E089E00E94D70061E056
:100590008AE00E94D70061E08BE00E94D70061E012
:1005A0008BE00E94A90060E08BE00E94A9003CE67D
:1005B000832E912C04E210E048E4E42EF12C20E993
:1005C000C22ED12C98E0692E91E0792E512C412C2D
:1005D00061E085E00E94A90061E086E00E94A90038
:1005E000F3018081F2E06F0E711C60E00E94A900AF
:1005F00084E091E09A838983B12CA12CE981FA816E
:1006000021913191FA83E9833327F901E255FF4FB4
:100610008491F901E656FF4F2490F901EA57FF4F04
:1006200034903320C9F081110E948000E32DF0E066
:10063000EE0FFF1FE458FF4FA591B491EC912E22CD
:1006400059F0AA94AB2859F1AA24A394B12CD6CF7F
:1006500044244394512CBCCFC201880F991F805071
:100660009F4FA80EB91EF50180818093230110923F
:10067000220110922101A0902101B090220185EB6E
:10068000A816B104ECF4B50183E10E94BE019CE31D
:10069000A90EB11CB0922201A0922101ECCF4A9484
:1006A0004528B1F66EE170E080E090E00E942D01F7
:1006B00080E090E0892B09F485CF0E9400007FCF75
:1006C00064EF71E080E090E00E942D01E4EBF0E047
:1006D000F0932201E0932101A0902101B09022012A
:1006E000B7FC0CC0B50183E10E94BE01FCE3AF1A68
:1006F000B108B0922201A0922101EECF66E070E035
:1007000085E090E00E948501109222011092210163
:10071000A0902101B090220185EBA816B10464F4E9
:10072000B50182E10E94BE019CE3A90EB11CB0920A
:100730002201A0922101ECCF2FB7F89480911901EA
:1007400090911A01A0911B01B0911C012FBF8093C1
:100750001D0190931E01A0931F01B093200170E230
:10076000672E712CAA24A394B12C2FB7F8948091F2
:10077000190190911A01A0911B01B0911C012FBF8A
:10078000A114B10449F140911D0150911E016091E5
:100790001F0170912001841B950BA60BB70B8436AB
:1007A0009105A105B105D0F0E4EBF0E0F093220152
:1007B000E0932101A0902101B0902201B7FC0CC070
:1007C000B50182E10E94BE01FCE3AF1AB108B0920C
:1007D0002201A0922101EECFB12CA12C61E08FE08B
:1007E0000E94A90060E08EE00E94A90066E070E02F
:1007F00080E090E00E942D0160E08FE00E94A9005F
:1008000061E08EE00E94A90066E070E080E090E088
:100810000E942D0181E0681A710809F0A6CF10929C
:10082000220110922101A0902101B090220195EBAC
:10083000A916B10464F4B50181E10E94BE01ECE3A4
:10084000AE0EB11CB0922201A0922101ECCF68EC57
:1008500070E080E090E00E942D0184EB90E09093A6
:10086000220180932101A0902101B0902201B7FCC8
:100870000CC0B50181E10E94BE019CE3A91AB10838
:10088000B0922201A0922101EECF66E070E08AE0F2
:1008900090E00E94850163E0662E712C1092220187
:1008A00010922101A0902101B0902201E5EBAE163B
:1008B000B10464F4B50180E10E94BE01FCE3AF0E17
:1008C000B11CB0922201A0922101ECCF64E670E04D
:1008D00080E090E00E942D0184EB90E09093220153
:1008E00080932101A0902101B0902201B7FC0CC09F
:1008F000B50180E10E94BE019CE3A91AB108B09243
:100900002201A0922101EECF6CE070E084E090E043
:100910000E948501E1E06E1A710809F0BFCF0E94C4
:10092000600161E080E00E94A90068EE73E080E071
:1009300090E00E942D0160E080E00E94A9000E94EA
:10094000600168EE73E080E090E00E942D018091EC
:100950002301823309F487C14CF458E0A52EB12C51
:10096000813309F44CC010922301A2CE833309F4E1
:10097000B9C248E0A42EB12C8433A9F761E084E029
:100980000E94A90061E089E00E94A90060E08AE07D
:100990000E94A90064E670E080E090E00E942D01D2
:1009A00060E089E00E94A90061E08AE00E94A9005D
:1009B00064E670E080E090E00E942D0181E0A81ADA
:1009C000B108E1F660E084E00E94A90010932201E2
:1009D00000932101A0902101B090220199E4A91671
:1009E000B1040CF0CEC3B5018BE00E94BE01ECE077
:1009F000AE0EB11CB0922201A0922101EBCF61E0BA
:100A000089E00E94A90060E08AE00E94A90064E6F3
:100A100070E080E090E00E942D0160E089E00E949B
:100A2000A90061E08AE00E94A90064E670E080E02D
:100A300090E00E942D01F1E0AF1AB10801F7109388
:100A4000220100932101A0902101B090220189E4AC
:100A5000A816B10464F4B5018BE00E94BE019CE0CD
:100A6000A90EB11CB0922201A0922101ECCF48E066
:100A7000A42EB12C61E089E00E94A90060E08AE028
:100A80000E94A90064E670E080E090E00E942D01E1
:100A900060E089E00E94A90061E08AE00E94A9006C
:100AA00064E670E080E090E00E942D01E1E0AE1A83
:100AB000B10801F7F0922201E0922101A0902101FA
:100AC000B0902201FDE6AF16B10464F4B5018BE0ED
:100AD0000E94BE018CE0A80EB11CB0922201A0922F
:100AE0002101ECCF38E0A32EB12C61E083E00E941D
:100AF000A90061E089E00E94A90060E08AE00E940C
:100B0000A90064E670E080E090E00E942D0160E0C2
:100B100089E00E94A90061E08AE00E94A90064E6E1
:100B200070E080E090E00E942D0191E0A91AB108E8
:100B3000E1F660E083E00E94A90090922201809299
:100B40002101A0902101B0902201E1E9AE16B1048B
:100B500064F4B5018BE00E94BE01FCE0AF0EB11C55
:100B6000B0922201A0922101ECCF28E0A22EB12C5C
:100B700061E089E00E94A90060E08AE00E94A9008B
:100B800064E670E080E090E00E942D0160E089E082
:100B90000E94A90061E08AE00E94A90064E670E07A
:100BA00080E090E00E942D0181E0A81AB10801F7D1
:100BB000D0922201C0922101A0902101B090220187
:100BC00095EBA916B10464F4B5018BE00E94BE0157
:100BD000ECE0AE0EB11CB0922201A0922101ECCF4C
:100BE00098E0A92EB12C61E084E00E94A90061E0A8
:100BF00089E00E94A90060E08AE00E94A90064E602
:100C000070E080E090E00E942D0160E089E00E94A9
:100C1000A90061E08AE00E94A90064E670E080E03B
:100C200090E00E942D01F1E0AF1AB108E1F660E01A
:100C300084E00E94A90084EB90E0909322018093CD
:100C40002101A0902101B0902201B7FC8CCEB5010A
:100C50008BE00E94BE019CE3A91AB108B092220168
:100C6000A0922101EECF88E0A82EB12C61E089E0AE
:100C70000E94A90060E08AE00E94A90064E670E09A
:100C800080E090E00E942D0160E089E00E94A900D0
:100C900061E08AE00E94A90064E670E080E090E0F4
:100CA0000E942D01E1E0AE1AB10801F71093220174
:100CB00000932101A0902101B0902201F9E4AF1628
:100CC000B10464F4B5018BE00E94BE018CE0A80E73
:100CD000B11CB0922201A0922101ECCFB8E0AB2E62
:100CE000B12C61E089E00E94A90060E08AE00E94E6
:100CF000A90064E670E080E090E00E942D0160E0D1
:100D000089E00E94A90061E08AE00E94A90064E6EF
:100D100070E080E090E00E942D0191E0A91AB108F6
:100D200001F7F0922201E0922101A0902101B09000
:100D30002201EDE6AE16B10464F4B5018BE00E9429
:100D4000BE01FCE0AF0EB11CB0922201A0922101C5
:100D5000ECCFB12CA12C61E0A0FC60E083E00E940C
:100D6000A90061E089E00E94A90060E08AE00E9499
:100D7000A90064E670E080E090E00E942D0160E050
:100D800089E00E94A90061E08AE00E94A90064E66F
:100D900070E080E090E00E942D018FEFA81AB80A61
:100DA00098E0A916B104B9F660E083E00E94A900BA
:100DB0009092220180922101A0902101B090220105
:100DC000E1E9AE16B10464F4B5018BE00E94BE0106
:100DD000FCE0AF0EB11CB0922201A0922101ECCF39
:100DE000A8E0AA2EB12C61E089E00E94A90060E091
:100DF0008AE00E94A90064E670E080E090E00E9432
:100E00002D0160E089E00E94A90061E08AE00E9473
:100E1000A90064E670E080E090E00E942D0181E08E
:100E2000A81AB10801F7D0922201C0922101A09026
:100E30002101B090220195EBA916B10464F4B5012B
:100E40008BE00E94BE01ECE0AE0EB11CB09222011C
:100E5000A0922101ECCFB12CA12C61E0A0FC60E0BC
:100E600084E00E94A90061E089E00E94A90060E09E
:100E70008AE00E94A90064E670E080E090E00E94B1
:100E80002D0160E089E00E94A90061E08AE00E94F3
:100E9000A90064E670E080E090E00E942D01FFEF81
:100EA000AF1ABF0A88E0A816B104B9F660E084E082
:100EB0000E94A900E4EBF0E0F0932201E09321010D
:100EC000A0902101B0902201B7FC4DCDB5018BE07F
:100ED0000E94BE01FCE3AF1AB108B0922201A092B9
:100EE0002101EECFF8E0AF2EB12C61E083E00E944B
:100EF000A90061E089E00E94A90060E08AE00E9408
:100F0000A90064E670E080E090E00E942D0160E0BE
:100F100089E00E94A90061E08AE00E94A90064E6DD
:100F200070E080E090E00E942D0181E0A81AB108F5
:100F3000E1F660E083E00E94A90010932201009393
:100F40002101A0902101B090220199E4A916B104D9
:100F500064F4B5018BE00E94BE01ECE0AE0EB11C62
:100F6000B0922201A0922101ECCFE8E0AE2EB12C8C
:100F700061E089E00E94A90060E08AE00E94A90087
:100F800064E670E080E090E00E942D0160E089E07E
:100F90000E94A90061E08AE00E94A90064E670E076
:100FA00080E090E00E942D01F1E0AF1AB10801F756
:100FB000F0922201E0922101A0902101B090220143
:100FC0008DE6A816B10464F4B5018BE00E94BE0161
:100FD0009CE0A90EB11CB0922201A0922101ECCF9D
:100FE00078E0A72EB12C61E089E00E94A90060E0C2
:100FF0008AE00E94A90064E670E080E090E00E9430
:101000002D0160E089E00E94A90061E08AE00E9471
:10101000A90064E670E080E090E00E942D01E1E02C
:10102000AE1AB10801F79092220180922101A0909E
:101030002101B0902201F1E9AF16B10464F4B501C9
:101040008BE00E94BE018CE0A80EB11CB092220180
:10105000A0922101ECCF68E0A62EB12C61E089E0DE
:101060000E94A90060E08AE00E94A90064E670E0A6
:1010700080E090E00E942D0160E089E00E94A900DC
:1010800061E08AE00E94A90064E670E080E090E000
:101090000E942D0191E0A91AB10801F7D092220116
:1010A000C0922101A0902101B0902201E5EBAE1683
:1010B000B10464F4B5018BE00E94BE01FCE0AF0E08
:1010C000B11CB0922201A0922101ECCF58E0A52ED4
:1010D000B12C61E084E00E94A90061E089E00E94F7
:1010E000A90060E08AE00E94A90064E670E080E068
:1010F00090E00E942D0160E084E00E94A90064E677
:1011000070E080E090E00E942D0161E084E00E94A8
:10111000A90060E089E00E94A90061E08AE00E94E5
:10112000A90064E670E080E090E00E942D0160E09C
:1011300084E00E94A90064E670E080E090E00E94F4
:101140002D0181E0A81AB10821F660E084E00E9438
:10115000A900E4EBF0E0F0932201E0932101A090DC
:101160002101B0902201B7FCFECBB5018BE00E94BB
:10117000BE01FCE3AF1AB108B0922201A092210196
:10118000EECF38E0A32EB12C61E084E00E94A900EC
:1011900061E089E00E94A90060E08AE00E94A90065
:1011A00064E670E080E090E00E942D0160E089E05C
:1011B0000E94A90061E08AE00E94A90064E670E054
:1011C00080E090E00E942D01F1E0AF1AB108E1F655
:1011D00060E084E00E94A900F0922201E0922101E7
:1011E000A0902101B09022018DE6A816B10464F40C
:1011F000B5018BE00E94BE019CE0A90EB11CB0922B
:101200002201A0922101ECCF28E0A22EB12C61E0B6
:1012100089E00E94A90060E08AE00E94A90064E6DB
:1012200070E080E090E00E942D0160E089E00E9483
:10123000A90061E08AE00E94A90064E670E080E015
:1012400090E00E942D01E1E0AE1AB10801F7909202
:10125000220180922101A0902101B0902201F1E9A8
:10126000AF16B10464F4B5018BE00E94BE018CE0BE
:10127000A80EB11CB0922201A0922101ECCF98E0FF
:10128000A92EB12C61E089E00E94A90060E08AE00B
:101290000E94A90064E670E080E090E00E942D01C9
:1012A00060E089E00E94A90061E08AE00E94A90054
:1012B00064E670E080E090E00E942D0191E0A91AC0
:1012C000B10801F7D0922201C0922101A090210122
:1012D000B0902201E5EBAE16B10464F4B5018BE0E9
:1012E0000E94BE01FCE0AF0EB11CB0922201A092A0
:1012F0002101ECCF88E0A82EB12C61E084E00E94AF
:10130000A90061E089E00E94A90060E08AE00E94F3
:10131000A90064E670E080E090E00E942D0160E0AA
:1013200084E00E94A90064E670E080E090E00E9402
:101330002D0161E083E00E94A90060E089E00E9445
:10134000A90061E08AE00E94A90064E670E080E004
:1013500090E00E942D0160E083E00E94A90064E615
:1013600070E080E090E00E942D0181E0A81AB108B1
:1013700021F660E084E00E94A90060E083E00E9422
:10138000A900E4EBF0E0F0932201E0932101A090AA
:101390002101B0902201B7FCE6CAB5018BE00E94A2
:1013A000BE01FCE3AF1AB108B0922201A092210164
:0613B000EECFF894FFCF20
:1013B60031323334080007000500060013121110FD
:0213C6000F0E08
:00000001FF
